{"abi":[{"type":"function","name":"getTickData","inputs":[{"name":"pool","type":"address","internalType":"address"},{"name":"tickLower","type":"int24","internalType":"int24"},{"name":"tickUpper","type":"int24","internalType":"int24"},{"name":"maxTicks","type":"uint256","internalType":"uint256"}],"outputs":[{"name":"populatedTicks","type":"tuple[]","internalType":"struct UniObrv.PopulatedTick[]","components":[{"name":"tick","type":"int24","internalType":"int24"},{"name":"liquidityNet","type":"int128","internalType":"int128"},{"name":"liquidityGross","type":"uint128","internalType":"uint128"},{"name":"feeGrowthOutside0X128","type":"uint256","internalType":"uint256"},{"name":"feeGrowthOutside1X128","type":"uint256","internalType":"uint256"}]},{"name":"tickSpacing","type":"int24","internalType":"int24"}],"stateMutability":"view"}],"bytecode":{"object":"0x608060405234601c57600e6020565b61132461002b823961132490f35b6026565b60405190565b5f80fdfe60806040526004361015610013575b61029f565b61001d5f3561002c565b63fc99cb740361000e57610265565b60e01c90565b60405190565b5f80fd5b5f80fd5b60018060a01b031690565b61005490610040565b90565b6100608161004b565b0361006757565b5f80fd5b9050359061007882610057565b565b60020b90565b6100898161007a565b0361009057565b5f80fd5b905035906100a182610080565b565b90565b6100af816100a3565b036100b657565b5f80fd5b905035906100c7826100a6565b565b60808183031261010a576100df825f830161006b565b926101076100f08460208501610094565b936100fe8160408601610094565b936060016100ba565b90565b61003c565b5190565b60209181520190565b60200190565b61012b9061007a565b9052565b600f0b90565b61013e9061012f565b9052565b6fffffffffffffffffffffffffffffffff1690565b61016090610142565b9052565b61016d906100a3565b9052565b906080806101c9936101895f8201515f860190610122565b61019b60208201516020860190610135565b6101ad60408201516040860190610157565b6101bf60608201516060860190610164565b0151910190610164565b565b906101d88160a093610171565b0190565b60200190565b906101ff6101f96101f28461010f565b8093610113565b9261011c565b905f5b81811061020f5750505090565b90919261022861022260019286516101cb565b946101dc565b9101919091610202565b61023b9061007a565b9052565b9291602061025b6102639360408701908782035f8901526101e2565b940190610232565b565b3461029a576102816102783660046100c9565b92919091610cd5565b9061029661028d610032565b9283928361023f565b0390f35b610038565b5f80fd5b606090565b5f90565b90565b90565b6102c66102c16102cb926102ac565b6102af565b610040565b90565b6102d7906102b2565b90565b60209181520190565b5f7f496e76616c696420706f6f6c2061646472657373000000000000000000000000910152565b61031760146020926102da565b610320816102e3565b0190565b6103399060208101905f81830391015261030a565b90565b1561034357565b61034b610032565b62461bcd60e51b81528061036160048201610324565b0390fd5b5f7f496e76616c6964207469636b2072616e67650000000000000000000000000000910152565b61039960126020926102da565b6103a281610365565b0190565b6103bb9060208101905f81830391015261038c565b90565b156103c557565b6103cd610032565b62461bcd60e51b8152806103e3600482016103a6565b0390fd5b90565b6103fe6103f9610403926103e7565b6102af565b61007a565b90565b90565b61041d61041861042292610406565b6102af565b61007a565b90565b5f7f5469636b73206f7574206f662072616e67650000000000000000000000000000910152565b61045960126020926102da565b61046281610425565b0190565b61047b9060208101905f81830391015261044c565b90565b1561048557565b61048d610032565b62461bcd60e51b8152806104a360048201610466565b0390fd5b606090565b6104c06104bb6104c592610040565b6102af565b610040565b90565b6104d1906104ac565b90565b6104dd906104c8565b90565b6104e9906104ac565b90565b6104f5906104e0565b90565b601f801991011690565b634e487b7160e01b5f52604160045260245ffd5b90610520906104f8565b810190811067ffffffffffffffff82111761053a57604052565b610502565b60e01b90565b9050519061055282610080565b565b9060208282031261056d5761056a915f01610545565b90565b61003c565b5f0190565b61057f610032565b3d5f823e3d90fd5b634e487b7160e01b5f52601260045260245ffd5b634e487b7160e01b5f52601160045260245ffd5b6105bb6105c19161007a565b9161007a565b9081156105e35760015f038214627fffff198214166105de570590565b61059b565b610587565b6105f46105fa9161007a565b9161007a565b02906106058261007a565b91820361060e57565b61059b565b90565b60ff1690565b61063061062b61063592610613565b6102af565b610616565b90565b1d90565b61065b9061065561064f61066094610616565b9161007a565b90610638565b61007a565b90565b60010b90565b61067d6106786106829261007a565b6102af565b610663565b90565b5f90565b61069561069b91610663565b91610663565b900390617fff8213617fff198312176106b057565b61059b565b90565b6106cc6106c76106d1926106b5565b6102af565b610663565b90565b6106e06106e691610663565b91610663565b0190617fff198212617fff8313176106fa57565b61059b565b61ffff1690565b61071a61071561071f92610663565b6102af565b6106ff565b90565b61073661073161073b926106ff565b6102af565b6100a3565b90565b9061075161074a610032565b9283610516565b565b67ffffffffffffffff811161076b5760208091020190565b610502565b9061078261077d83610753565b61073e565b918252565b369037565b906107b161079983610770565b926020806107a78693610753565b9201910390610787565b565b6107bc90610663565b617fff81146107cb5760010190565b61059b565b905051906107dd826100a6565b565b906020828203126107f8576107f5915f016107d0565b90565b61003c565b61080690610663565b9052565b919061081d905f602085019401906107fd565b565b634e487b7160e01b5f52603260045260245ffd5b5190565b9061084182610833565b811015610852576020809102010190565b61081f565b90610861906100a3565b9052565b61087461087a919392936100a3565b926100a3565b820180921161088557565b61059b565b67ffffffffffffffff81116108a25760208091020190565b610502565b906108b96108b48361088a565b61073e565b918252565b6108c860a061073e565b90565b5f90565b5f90565b5f90565b5f90565b6108e36108be565b90602080808080866108f36108cb565b8152016108fe6108cf565b8152016109096108d3565b8152016109146108d7565b81520161091f6108d7565b81525050565b61092d6108db565b90565b5f5b82811061093e57505050565b602090610949610925565b8184015201610932565b90610978610960836108a7565b9260208061096e869361088a565b9201910390610930565b565b61098e610989610993926102ac565b6102af565b6100a3565b90565b61099f906100a3565b5f1981146109ad5760010190565b61059b565b6109bc90516100a3565b90565b6109d36109ce6109d8926100a3565b6102af565b6106ff565b90565b6109ef6109ea6109f4926106ff565b6102af565b610663565b90565b90565b610a0e610a09610a13926109f7565b6102af565b6100a3565b90565b610a2a610a25610a2f926106b5565b6102af565b6100a3565b90565b1b90565b610a5590610a4f610a49610a5a946100a3565b916100a3565b90610a32565b6100a3565b90565b610a71610a6c610a7692610663565b6102af565b61007a565b90565b610a8d610a88610a92926109f7565b6102af565b61007a565b90565b62ffffff1690565b610ab1610aac610ab6926100a3565b6102af565b610a95565b90565b610acd610ac8610ad292610a95565b6102af565b61007a565b90565b610ae1610ae79161007a565b9161007a565b0190627fffff198212627fffff831317610afd57565b61059b565b610b0b81610142565b03610b1257565b5f80fd5b90505190610b2382610b02565b565b610b2e8161012f565b03610b3557565b5f80fd5b90505190610b4682610b25565b565b60060b90565b610b5781610b48565b03610b5e57565b5f80fd5b90505190610b6f82610b4e565b565b610b7a81610040565b03610b8157565b5f80fd5b90505190610b9282610b71565b565b63ffffffff1690565b610ba681610b94565b03610bad57565b5f80fd5b90505190610bbe82610b9d565b565b151590565b610bce81610bc0565b03610bd557565b5f80fd5b90505190610be682610bc5565b565b919061010083820312610c6457610c01815f8501610b16565b92610c0f8260208301610b39565b92610c1d83604084016107d0565b92610c2b81606085016107d0565b92610c398260808301610b62565b92610c61610c4a8460a08501610b85565b93610c588160c08601610bb1565b9360e001610bd9565b90565b61003c565b9190610c7c905f60208501940190610232565b565b610c8860a061073e565b90565b90610c959061007a565b9052565b90610ca39061012f565b9052565b90610cb190610142565b9052565b90610cbf8261010f565b811015610cd0576020809102010190565b61081f565b9390929193610ce26102a3565b50610ceb6102a8565b50610d1181610d0a610d04610cff5f6102ce565b61004b565b9161004b565b141561033c565b610d2e84610d27610d218861007a565b9161007a565b13156103be565b83610d45610d3f620d89e7196103ea565b9161007a565b121580611263575b610d569061047e565b610d5e6104a7565b50610d8b6020610d75610d70846104d4565b6104ec565b63d0c93a7c90610d83610032565b93849261053f565b82528180610d9b60048201610572565b03915afa90811561125e57610e10610e08610e03610df3610deb610de4610ddc610dd5610e2599610e20995f91611230575b50809e6105af565b8d906105e8565b9c8c906105af565b8b906105e8565b9a8a906105af565b610dfd600861061c565b9061063c565b610669565b9787906105af565b610e1a600861061c565b9061063c565b610669565b93610e2e610685565b92610e5d610e58610e53610e43898b90610689565b610e4d60016106b8565b906106d4565b610706565b610722565b91610e678361078c565b9588955b86610e7e610e788b610663565b91610663565b13610f5c57610ec4906020610e9a610e95896104d4565b6104ec565b635339c29690610eb98b92610ead610032565b9687948593849361053f565b83526004830161080a565b03915afa908115610f5757610f178c610f128c610f0d8d610f07610f02610efd610f1d9a610f239c5f91610f29575b5097889694610689565b610706565b610722565b90610837565b610857565b6112a3565b90610865565b966107b3565b95610e6b565b610f4a915060203d8111610f50575b610f428183610516565b8101906107df565b5f610ef3565b503d610f38565b610577565b9193989750919395945080610f79610f73846100a3565b916100a3565b115f1461122657509592955b94610f8f86610953565b93610f98610685565b93610fa25f61097a565b915b82610fb7610fb1836100a3565b916100a3565b108061120c575b1561120057610fd6610fd18b8590610837565b6109b2565b93610ff281610fec610fe7876109bf565b6109db565b906106d4565b9a610ffc5f61097a565b5b8061101261100c6101006109fa565b916100a3565b10806111e5575b156111ce578c908b898961103760016110328691610a16565b610a36565b1661104a6110445f61097a565b916100a3565b03611061575b505061105c9150610996565b610ffd565b6110b86110b36110ad6110e2966110a76110906110816101009793610a5d565b61108a88610a79565b906105e8565b6110a161109c8a610a9d565b610ab9565b90610ad5565b906105e8565b936104d4565b6104ec565b63f30dba93906110d784926110cb610032565b9788948593849361053f565b835260048301610c69565b03915afa9283156111c95761105c93611172925f808080919392909461117e575b61115694955061114d929161113b61114492959791939795919395611132611129610c7e565b995f8b01610c8b565b60208901610c99565b60408701610ca7565b60608501610857565b60808301610857565b8c6111608d610996565b9c9161116c8383610cb5565b52610cb5565b51508d91508b89611050565b50506111569250611144915061114d906111b261113b956101003d81116111c2575b6111aa8183610516565b810190610be8565b5050505093945095509350611103565b503d6111a0565b610577565b50939094506111de919a50610996565b9198610fa4565b508b6111fa6111f48b926100a3565b916100a3565b10611019565b50955050509350509250565b508561122061121a8b6100a3565b916100a3565b10610fbe565b9050959295610f85565b611251915060203d8111611257575b6112498183610516565b810190610554565b5f610dcd565b503d61123f565b610577565b50610d568561127d611277620d89e8610409565b9161007a565b13159050610d4d565b9061129191036100a3565b90565b60016112a091016100a3565b90565b6112ab610685565b905b806112c06112ba5f61097a565b916100a3565b146112ea57806112dd6112e4926112d76001610a16565b90611286565b1691611294565b906112ad565b509056fea264697066735822122020f267efb9ac0a6e301493c8278770416421802c267887f6c5146ea5e40a50b364736f6c634300081c0033","linkReferences":{}},"methodIdentifiers":{"getTickData(address,int24,int24,uint256)":"fc99cb74"},"id":0}