{"abi":[{"type":"function","name":"getTickData","inputs":[{"name":"pool","type":"address","internalType":"address"},{"name":"tickLower","type":"int24","internalType":"int24"},{"name":"tickUpper","type":"int24","internalType":"int24"},{"name":"maxTicks","type":"uint256","internalType":"uint256"}],"outputs":[{"name":"populatedTicks","type":"tuple[]","internalType":"struct UniObrv.PopulatedTick[]","components":[{"name":"tick","type":"int24","internalType":"int24"},{"name":"liquidityNet","type":"int128","internalType":"int128"},{"name":"liquidityGross","type":"uint128","internalType":"uint128"},{"name":"feeGrowthOutside0X128","type":"uint256","internalType":"uint256"},{"name":"feeGrowthOutside1X128","type":"uint256","internalType":"uint256"}]}],"stateMutability":"view"}],"bytecode":{"object":"0x608060405234601c57600e6020565b61130861002b823961130890f35b6026565b60405190565b5f80fdfe60806040526004361015610013575b610283565b61001d5f3561002c565b63fc99cb740361000e5761024a565b60e01c90565b60405190565b5f80fd5b5f80fd5b60018060a01b031690565b61005490610040565b90565b6100608161004b565b0361006757565b5f80fd5b9050359061007882610057565b565b60020b90565b6100898161007a565b0361009057565b5f80fd5b905035906100a182610080565b565b90565b6100af816100a3565b036100b657565b5f80fd5b905035906100c7826100a6565b565b60808183031261010a576100df825f830161006b565b926101076100f08460208501610094565b936100fe8160408601610094565b936060016100ba565b90565b61003c565b5190565b60209181520190565b60200190565b61012b9061007a565b9052565b600f0b90565b61013e9061012f565b9052565b6fffffffffffffffffffffffffffffffff1690565b61016090610142565b9052565b61016d906100a3565b9052565b906080806101c9936101895f8201515f860190610122565b61019b60208201516020860190610135565b6101ad60408201516040860190610157565b6101bf60608201516060860190610164565b0151910190610164565b565b906101d88160a093610171565b0190565b60200190565b906101ff6101f96101f28461010f565b8093610113565b9261011c565b905f5b81811061020f5750505090565b90919261022861022260019286516101cb565b946101dc565b9101919091610202565b6102479160208201915f8184039101526101e2565b90565b3461027e5761027a6102696102603660046100c9565b92919091610cc2565b610271610032565b91829182610232565b0390f35b610038565b5f80fd5b606090565b90565b90565b6102a66102a16102ab9261028c565b61028f565b610040565b90565b6102b790610292565b90565b60209181520190565b5f7f496e76616c696420706f6f6c2061646472657373000000000000000000000000910152565b6102f760146020926102ba565b610300816102c3565b0190565b6103199060208101905f8183039101526102ea565b90565b1561032357565b61032b610032565b62461bcd60e51b81528061034160048201610304565b0390fd5b5f7f496e76616c6964207469636b2072616e67650000000000000000000000000000910152565b61037960126020926102ba565b61038281610345565b0190565b61039b9060208101905f81830391015261036c565b90565b156103a557565b6103ad610032565b62461bcd60e51b8152806103c360048201610386565b0390fd5b90565b6103de6103d96103e3926103c7565b61028f565b61007a565b90565b90565b6103fd6103f8610402926103e6565b61028f565b61007a565b90565b5f7f5469636b73206f7574206f662072616e67650000000000000000000000000000910152565b61043960126020926102ba565b61044281610405565b0190565b61045b9060208101905f81830391015261042c565b90565b1561046557565b61046d610032565b62461bcd60e51b81528061048360048201610446565b0390fd5b606090565b6104a061049b6104a592610040565b61028f565b610040565b90565b6104b19061048c565b90565b6104bd906104a8565b90565b6104c99061048c565b90565b6104d5906104c0565b90565b601f801991011690565b634e487b7160e01b5f52604160045260245ffd5b90610500906104d8565b810190811067ffffffffffffffff82111761051a57604052565b6104e2565b60e01b90565b9050519061053282610080565b565b9060208282031261054d5761054a915f01610525565b90565b61003c565b5f0190565b61055f610032565b3d5f823e3d90fd5b634e487b7160e01b5f52601260045260245ffd5b634e487b7160e01b5f52601160045260245ffd5b61059b6105a19161007a565b9161007a565b9081156105c35760015f038214627fffff198214166105be570590565b61057b565b610567565b6105d46105da9161007a565b9161007a565b02906105e58261007a565b9182036105ee57565b61057b565b90565b60ff1690565b61061061060b610615926105f3565b61028f565b6105f6565b90565b1d90565b61063b9061063561062f610640946105f6565b9161007a565b90610618565b61007a565b90565b60010b90565b61065d6106586106629261007a565b61028f565b610643565b90565b5f90565b61067561067b91610643565b91610643565b900390617fff8213617fff1983121761069057565b61057b565b90565b6106ac6106a76106b192610695565b61028f565b610643565b90565b6106c06106c691610643565b91610643565b0190617fff198212617fff8313176106da57565b61057b565b61ffff1690565b6106fa6106f56106ff92610643565b61028f565b6106df565b90565b61071661071161071b926106df565b61028f565b6100a3565b90565b9061073161072a610032565b92836104f6565b565b67ffffffffffffffff811161074b5760208091020190565b6104e2565b9061076261075d83610733565b61071e565b918252565b369037565b9061079161077983610750565b926020806107878693610733565b9201910390610767565b565b61079c90610643565b617fff81146107ab5760010190565b61057b565b905051906107bd826100a6565b565b906020828203126107d8576107d5915f016107b0565b90565b61003c565b6107e690610643565b9052565b91906107fd905f602085019401906107dd565b565b634e487b7160e01b5f52603260045260245ffd5b5190565b9061082182610813565b811015610832576020809102010190565b6107ff565b90610841906100a3565b9052565b61085461085a919392936100a3565b926100a3565b820180921161086557565b61057b565b67ffffffffffffffff81116108825760208091020190565b6104e2565b906108996108948361086a565b61071e565b918252565b6108a860a061071e565b90565b5f90565b5f90565b5f90565b5f90565b6108c361089e565b90602080808080866108d36108ab565b8152016108de6108af565b8152016108e96108b3565b8152016108f46108b7565b8152016108ff6108b7565b81525050565b61090d6108bb565b90565b5f5b82811061091e57505050565b602090610929610905565b8184015201610912565b9061095861094083610887565b9260208061094e869361086a565b9201910390610910565b565b61096e6109696109739261028c565b61028f565b6100a3565b90565b61097f906100a3565b5f19811461098d5760010190565b61057b565b61099c90516100a3565b90565b6109b36109ae6109b8926100a3565b61028f565b6106df565b90565b6109cf6109ca6109d4926106df565b61028f565b610643565b90565b90565b6109ee6109e96109f3926109d7565b61028f565b6100a3565b90565b610a0a610a05610a0f92610695565b61028f565b6100a3565b90565b1b90565b610a3590610a2f610a29610a3a946100a3565b916100a3565b90610a12565b6100a3565b90565b610a51610a4c610a5692610643565b61028f565b61007a565b90565b610a6d610a68610a72926109d7565b61028f565b61007a565b90565b62ffffff1690565b610a91610a8c610a96926100a3565b61028f565b610a75565b90565b610aad610aa8610ab292610a75565b61028f565b61007a565b90565b610ac1610ac79161007a565b9161007a565b0190627fffff198212627fffff831317610add57565b61057b565b610aeb81610142565b03610af257565b5f80fd5b90505190610b0382610ae2565b565b610b0e8161012f565b03610b1557565b5f80fd5b90505190610b2682610b05565b565b60060b90565b610b3781610b28565b03610b3e57565b5f80fd5b90505190610b4f82610b2e565b565b610b5a81610040565b03610b6157565b5f80fd5b90505190610b7282610b51565b565b63ffffffff1690565b610b8681610b74565b03610b8d57565b5f80fd5b90505190610b9e82610b7d565b565b151590565b610bae81610ba0565b03610bb557565b5f80fd5b90505190610bc682610ba5565b565b919061010083820312610c4457610be1815f8501610af6565b92610bef8260208301610b19565b92610bfd83604084016107b0565b92610c0b81606085016107b0565b92610c198260808301610b42565b92610c41610c2a8460a08501610b65565b93610c388160c08601610b91565b9360e001610bb9565b90565b61003c565b610c529061007a565b9052565b9190610c69905f60208501940190610c49565b565b610c7560a061071e565b90565b90610c829061007a565b9052565b90610c909061012f565b9052565b90610c9e90610142565b9052565b90610cac8261010f565b811015610cbd576020809102010190565b6107ff565b9390929193610ccf610287565b50610cf581610cee610ce8610ce35f6102ae565b61004b565b9161004b565b141561031c565b610d1284610d0b610d058861007a565b9161007a565b131561039e565b83610d29610d23620d89e7196103ca565b9161007a565b121580611247575b610d3a9061045e565b610d42610487565b50610d6f6020610d59610d54846104b4565b6104cc565b63d0c93a7c90610d67610032565b93849261051f565b82528180610d7f60048201610552565b03915afa90811561124257610df4610dec610de7610dd7610dcf610dc8610dc0610db9610e0999610e04995f91611214575b50809e61058f565b8d906105c8565b9c8c9061058f565b8b906105c8565b9a8a9061058f565b610de160086105fc565b9061061c565b610649565b97879061058f565b610dfe60086105fc565b9061061c565b610649565b93610e12610665565b92610e41610e3c610e37610e27898b90610669565b610e316001610698565b906106b4565b6106e6565b610702565b91610e4b8361076c565b9588955b86610e62610e5c8b610643565b91610643565b13610f4057610ea8906020610e7e610e79896104b4565b6104cc565b635339c29690610e9d8b92610e91610032565b9687948593849361051f565b8352600483016107ea565b03915afa908115610f3b57610efb8c610ef68c610ef18d610eeb610ee6610ee1610f019a610f079c5f91610f0d575b5097889694610669565b6106e6565b610702565b90610817565b610837565b611287565b90610845565b96610793565b95610e4f565b610f2e915060203d8111610f34575b610f2681836104f6565b8101906107bf565b5f610ed7565b503d610f1c565b610557565b9193989750919395945080610f5d610f57846100a3565b916100a3565b115f1461120a57509592955b94610f7386610933565b93610f7c610665565b93610f865f61095a565b915b82610f9b610f95836100a3565b916100a3565b10806111f0575b156111e457610fba610fb58b8590610817565b610992565b93610fd681610fd0610fcb8761099f565b6109bb565b906106b4565b9a610fe05f61095a565b5b80610ff6610ff06101006109da565b916100a3565b10806111c9575b156111b2578c908b898961101b600161101686916109f6565b610a16565b1661102e6110285f61095a565b916100a3565b03611045575b50506110409150610976565b610fe1565b61109c6110976110916110c69661108b6110746110656101009793610a3d565b61106e88610a59565b906105c8565b6110856110808a610a7d565b610a99565b90610ab5565b906105c8565b936104b4565b6104cc565b63f30dba93906110bb84926110af610032565b9788948593849361051f565b835260048301610c56565b03915afa9283156111ad5761104093611156925f8080809193929094611162575b61113a949550611131929161111f6111289295979193979591939561111661110d610c6b565b995f8b01610c78565b60208901610c86565b60408701610c94565b60608501610837565b60808301610837565b8c6111448d610976565b9c916111508383610ca2565b52610ca2565b51508d91508b89611034565b505061113a925061112891506111319061119661111f956101003d81116111a6575b61118e81836104f6565b810190610bc8565b50505050939450955093506110e7565b503d611184565b610557565b50939094506111c2919a50610976565b9198610f88565b508b6111de6111d88b926100a3565b916100a3565b10610ffd565b50965050505050925050565b50856112046111fe8b6100a3565b916100a3565b10610fa2565b9050959295610f69565b611235915060203d811161123b575b61122d81836104f6565b810190610534565b5f610db1565b503d611223565b610557565b50610d3a8561126161125b620d89e86103e9565b9161007a565b13159050610d31565b9061127591036100a3565b90565b600161128491016100a3565b90565b61128f610665565b905b806112a461129e5f61095a565b916100a3565b146112ce57806112c16112c8926112bb60016109f6565b9061126a565b1691611278565b90611291565b509056fea2646970667358221220b4dee16a6205dbdbbff5afd0883855f0940ac78a5effacb9c4607c57fc8b349664736f6c634300081c0033","linkReferences":{}},"methodIdentifiers":{"getTickData(address,int24,int24,uint256)":"fc99cb74"},"id":0}